{
  "contractName": "RealStateContract",
  "abi": [
    {
      "inputs": [],
      "stateMutability": "nonpayable",
      "type": "constructor"
    },
    {
      "inputs": [],
      "name": "admin",
      "outputs": [
        {
          "internalType": "address payable",
          "name": "",
          "type": "address"
        }
      ],
      "stateMutability": "view",
      "type": "function",
      "constant": true
    },
    {
      "inputs": [
        {
          "internalType": "address",
          "name": "",
          "type": "address"
        }
      ],
      "name": "authorizedAddresses",
      "outputs": [
        {
          "internalType": "bool",
          "name": "",
          "type": "bool"
        }
      ],
      "stateMutability": "view",
      "type": "function",
      "constant": true
    },
    {
      "inputs": [
        {
          "internalType": "uint256",
          "name": "",
          "type": "uint256"
        }
      ],
      "name": "history",
      "outputs": [
        {
          "internalType": "uint256",
          "name": "registration",
          "type": "uint256"
        },
        {
          "internalType": "string",
          "name": "city",
          "type": "string"
        },
        {
          "internalType": "string",
          "name": "street",
          "type": "string"
        },
        {
          "internalType": "uint256",
          "name": "number",
          "type": "uint256"
        },
        {
          "internalType": "uint256",
          "name": "meters",
          "type": "uint256"
        },
        {
          "internalType": "uint256",
          "name": "price",
          "type": "uint256"
        },
        {
          "internalType": "string",
          "name": "owner",
          "type": "string"
        },
        {
          "internalType": "uint256",
          "name": "timestamp",
          "type": "uint256"
        },
        {
          "internalType": "address",
          "name": "requester",
          "type": "address"
        }
      ],
      "stateMutability": "view",
      "type": "function",
      "constant": true
    },
    {
      "inputs": [
        {
          "internalType": "uint256",
          "name": "",
          "type": "uint256"
        }
      ],
      "name": "realStateArray",
      "outputs": [
        {
          "internalType": "uint256",
          "name": "registration",
          "type": "uint256"
        },
        {
          "internalType": "string",
          "name": "city",
          "type": "string"
        },
        {
          "internalType": "string",
          "name": "street",
          "type": "string"
        },
        {
          "internalType": "uint256",
          "name": "number",
          "type": "uint256"
        },
        {
          "internalType": "uint256",
          "name": "meters",
          "type": "uint256"
        },
        {
          "internalType": "uint256",
          "name": "price",
          "type": "uint256"
        },
        {
          "internalType": "string",
          "name": "owner",
          "type": "string"
        },
        {
          "internalType": "uint256",
          "name": "timestamp",
          "type": "uint256"
        },
        {
          "internalType": "address",
          "name": "requester",
          "type": "address"
        }
      ],
      "stateMutability": "view",
      "type": "function",
      "constant": true
    },
    {
      "inputs": [
        {
          "internalType": "address",
          "name": "_address",
          "type": "address"
        }
      ],
      "name": "addAuthorizedAddress",
      "outputs": [],
      "stateMutability": "nonpayable",
      "type": "function"
    },
    {
      "inputs": [
        {
          "internalType": "address",
          "name": "_address",
          "type": "address"
        }
      ],
      "name": "removeAuthorizedAddress",
      "outputs": [],
      "stateMutability": "nonpayable",
      "type": "function"
    },
    {
      "inputs": [
        {
          "components": [
            {
              "internalType": "uint256",
              "name": "registration",
              "type": "uint256"
            },
            {
              "internalType": "string",
              "name": "city",
              "type": "string"
            },
            {
              "internalType": "string",
              "name": "street",
              "type": "string"
            },
            {
              "internalType": "uint256",
              "name": "number",
              "type": "uint256"
            },
            {
              "internalType": "uint256",
              "name": "meters",
              "type": "uint256"
            },
            {
              "internalType": "uint256",
              "name": "price",
              "type": "uint256"
            },
            {
              "internalType": "string",
              "name": "owner",
              "type": "string"
            },
            {
              "internalType": "uint256",
              "name": "timestamp",
              "type": "uint256"
            },
            {
              "internalType": "address",
              "name": "requester",
              "type": "address"
            }
          ],
          "internalType": "struct Shared.RealState",
          "name": "realState",
          "type": "tuple"
        }
      ],
      "name": "addRealState",
      "outputs": [],
      "stateMutability": "nonpayable",
      "type": "function"
    },
    {
      "inputs": [
        {
          "internalType": "uint256",
          "name": "_registration",
          "type": "uint256"
        }
      ],
      "name": "getRealStateByRegistration",
      "outputs": [
        {
          "internalType": "uint256",
          "name": "",
          "type": "uint256"
        }
      ],
      "stateMutability": "view",
      "type": "function",
      "constant": true
    },
    {
      "inputs": [
        {
          "internalType": "uint256",
          "name": "_registration",
          "type": "uint256"
        }
      ],
      "name": "deleteRealStateByRegistration",
      "outputs": [],
      "stateMutability": "nonpayable",
      "type": "function"
    },
    {
      "inputs": [
        {
          "internalType": "string",
          "name": "_city",
          "type": "string"
        }
      ],
      "name": "getRealStateByCity",
      "outputs": [
        {
          "components": [
            {
              "internalType": "uint256",
              "name": "registration",
              "type": "uint256"
            },
            {
              "internalType": "string",
              "name": "city",
              "type": "string"
            },
            {
              "internalType": "string",
              "name": "street",
              "type": "string"
            },
            {
              "internalType": "uint256",
              "name": "number",
              "type": "uint256"
            },
            {
              "internalType": "uint256",
              "name": "meters",
              "type": "uint256"
            },
            {
              "internalType": "uint256",
              "name": "price",
              "type": "uint256"
            },
            {
              "internalType": "string",
              "name": "owner",
              "type": "string"
            },
            {
              "internalType": "uint256",
              "name": "timestamp",
              "type": "uint256"
            },
            {
              "internalType": "address",
              "name": "requester",
              "type": "address"
            }
          ],
          "internalType": "struct Shared.RealState[]",
          "name": "",
          "type": "tuple[]"
        }
      ],
      "stateMutability": "view",
      "type": "function",
      "constant": true
    },
    {
      "inputs": [],
      "name": "getHistory",
      "outputs": [
        {
          "components": [
            {
              "internalType": "uint256",
              "name": "registration",
              "type": "uint256"
            },
            {
              "internalType": "string",
              "name": "city",
              "type": "string"
            },
            {
              "internalType": "string",
              "name": "street",
              "type": "string"
            },
            {
              "internalType": "uint256",
              "name": "number",
              "type": "uint256"
            },
            {
              "internalType": "uint256",
              "name": "meters",
              "type": "uint256"
            },
            {
              "internalType": "uint256",
              "name": "price",
              "type": "uint256"
            },
            {
              "internalType": "string",
              "name": "owner",
              "type": "string"
            },
            {
              "internalType": "uint256",
              "name": "timestamp",
              "type": "uint256"
            },
            {
              "internalType": "address",
              "name": "requester",
              "type": "address"
            }
          ],
          "internalType": "struct Shared.RealState[]",
          "name": "",
          "type": "tuple[]"
        }
      ],
      "stateMutability": "view",
      "type": "function",
      "constant": true
    }
  ],
  "bytecode": "0x60806040527350d3b84a2b1787b7704dd50c67733b6b5b293629600160006101000a81548173ffffffffffffffffffffffffffffffffffffffff021916908373ffffffffffffffffffffffffffffffffffffffff16021790555034801561006557600080fd5b50600160026000600160009054906101000a900473ffffffffffffffffffffffffffffffffffffffff1673ffffffffffffffffffffffffffffffffffffffff1673ffffffffffffffffffffffffffffffffffffffff16815260200190815260200160002060006101000a81548160ff021916908315150217905550612846806100ef6000396000f3fe608060405234801561001057600080fd5b50600436106100a95760003560e01c806393945aae1161007157806393945aae14610162578063a7a38f0b1461019a578063aa15efc8146101d2578063cc8c982f146101f0578063f19e207e1461020c578063f851a4401461023c576100a9565b80630de06237146100ae57806342f1181e146100de57806370712939146100fa57806382e27eab146101165780638324aa5b14610146575b600080fd5b6100c860048036038101906100c3919061177e565b61025a565b6040516100d59190611a4a565b60405180910390f35b6100f860048036038101906100f39190611a98565b610709565b005b610114600480360381019061010f9190611a98565b6107f4565b005b610130600480360381019061012b9190611af1565b6108df565b60405161013d9190611b2d565b60405180910390f35b610160600480360381019061015b9190611af1565b610966565b005b61017c60048036038101906101779190611af1565b610cf8565b60405161019199989796959493929190611ba1565b60405180910390f35b6101b460048036038101906101af9190611af1565b610f0e565b6040516101c999989796959493929190611ba1565b60405180910390f35b6101da611124565b6040516101e79190611a4a565b60405180910390f35b61020a60048036038101906102059190611c68565b611496565b005b61022660048036038101906102219190611a98565b61160a565b6040516102339190611ccc565b60405180910390f35b61024461162a565b6040516102519190611d08565b60405180910390f35b60606000805b6000805490508110156102e657848460405161027d929190611d62565b60405180910390206000828154811061029957610298611d7b565b5b90600052602060002090600902016001016040516102b79190611ea2565b6040518091039020036102d35781806102cf90611ee8565b9250505b80806102de90611ee8565b915050610260565b5060008167ffffffffffffffff81111561030357610302611f30565b5b60405190808252806020026020018201604052801561033c57816020015b610329611650565b8152602001906001900390816103215790505b5090506000805b600080549050811015610653578686604051610360929190611d62565b60405180910390206000828154811061037c5761037b611d7b565b5b906000526020600020906009020160010160405161039a9190611ea2565b60405180910390200361064057600081815481106103bb576103ba611d7b565b5b906000526020600020906009020160405180610120016040529081600082015481526020016001820180546103ef90611dd9565b80601f016020809104026020016040519081016040528092919081815260200182805461041b90611dd9565b80156104685780601f1061043d57610100808354040283529160200191610468565b820191906000526020600020905b81548152906001019060200180831161044b57829003601f168201915b5050505050815260200160028201805461048190611dd9565b80601f01602080910402602001604051908101604052809291908181526020018280546104ad90611dd9565b80156104fa5780601f106104cf576101008083540402835291602001916104fa565b820191906000526020600020905b8154815290600101906020018083116104dd57829003601f168201915b5050505050815260200160038201548152602001600482015481526020016005820154815260200160068201805461053190611dd9565b80601f016020809104026020016040519081016040528092919081815260200182805461055d90611dd9565b80156105aa5780601f1061057f576101008083540402835291602001916105aa565b820191906000526020600020905b81548152906001019060200180831161058d57829003601f168201915b50505050508152602001600782015481526020016008820160009054906101000a900473ffffffffffffffffffffffffffffffffffffffff1673ffffffffffffffffffffffffffffffffffffffff1673ffffffffffffffffffffffffffffffffffffffff168152505083838151811061062657610625611d7b565b5b6020026020010181905250818061063c90611ee8565b9250505b808061064b90611ee8565b915050610343565b50600260003373ffffffffffffffffffffffffffffffffffffffff1673ffffffffffffffffffffffffffffffffffffffff16815260200190815260200160002060009054906101000a900460ff16156106b157819350505050610703565b600082905060005b83518110156106fa5760008282815181106106d7576106d6611d7b565b5b602002602001015160a001818152505080806106f290611ee8565b9150506106b9565b50809450505050505b92915050565b600160009054906101000a900473ffffffffffffffffffffffffffffffffffffffff1673ffffffffffffffffffffffffffffffffffffffff163373ffffffffffffffffffffffffffffffffffffffff1614610799576040517f08c379a000000000000000000000000000000000000000000000000000000000815260040161079090611fd1565b60405180910390fd5b6001600260008373ffffffffffffffffffffffffffffffffffffffff1673ffffffffffffffffffffffffffffffffffffffff16815260200190815260200160002060006101000a81548160ff02191690831515021790555050565b600160009054906101000a900473ffffffffffffffffffffffffffffffffffffffff1673ffffffffffffffffffffffffffffffffffffffff163373ffffffffffffffffffffffffffffffffffffffff1614610884576040517f08c379a000000000000000000000000000000000000000000000000000000000815260040161087b90611fd1565b60405180910390fd5b6000600260008373ffffffffffffffffffffffffffffffffffffffff1673ffffffffffffffffffffffffffffffffffffffff16815260200190815260200160002060006101000a81548160ff02191690831515021790555050565b600080600090505b60008054905081101561093c57826000828154811061090957610908611d7b565b5b906000526020600020906009020160000154036109295780915050610961565b808061093490611ee8565b9150506108e7565b507fffffffffffffffffffffffffffffffffffffffffffffffffffffffffffffffff90505b919050565b600260003373ffffffffffffffffffffffffffffffffffffffff1673ffffffffffffffffffffffffffffffffffffffff16815260200190815260200160002060009054906101000a900460ff166109f2576040517f08c379a00000000000000000000000000000000000000000000000000000000081526004016109e990612063565b60405180910390fd5b60005b600080549050811015610cf3578160008281548110610a1757610a16611d7b565b5b90600052602060002090600902016000015403610ce05760008181548110610a4257610a41611d7b565b5b9060005260206000209060090201600080820160009055600182016000610a6991906116b2565b600282016000610a7991906116b2565b600382016000905560048201600090556005820160009055600682016000610aa191906116b2565b60078201600090556008820160006101000a81549073ffffffffffffffffffffffffffffffffffffffff0219169055505060008190505b6001600080549050610aea9190612083565b811015610c2f576000600182610b0091906120b7565b81548110610b1157610b10611d7b565b5b906000526020600020906009020160008281548110610b3357610b32611d7b565b5b90600052602060002090600902016000820154816000015560018201816001019081610b5f91906122ad565b5060028201816002019081610b7491906122ad565b5060038201548160030155600482015481600401556005820154816005015560068201816006019081610ba791906122ad565b50600782015481600701556008820160009054906101000a900473ffffffffffffffffffffffffffffffffffffffff168160080160006101000a81548173ffffffffffffffffffffffffffffffffffffffff021916908373ffffffffffffffffffffffffffffffffffffffff1602179055509050508080610c2790611ee8565b915050610ad8565b506000805480610c4257610c41612395565b5b6001900381819060005260206000209060090201600080820160009055600182016000610c6f91906116b2565b600282016000610c7f91906116b2565b600382016000905560048201600090556005820160009055600682016000610ca791906116b2565b60078201600090556008820160006101000a81549073ffffffffffffffffffffffffffffffffffffffff02191690555050905550610cf5565b8080610ceb90611ee8565b9150506109f5565b505b50565b60008181548110610d0857600080fd5b9060005260206000209060090201600091509050806000015490806001018054610d3190611dd9565b80601f0160208091040260200160405190810160405280929190818152602001828054610d5d90611dd9565b8015610daa5780601f10610d7f57610100808354040283529160200191610daa565b820191906000526020600020905b815481529060010190602001808311610d8d57829003601f168201915b505050505090806002018054610dbf90611dd9565b80601f0160208091040260200160405190810160405280929190818152602001828054610deb90611dd9565b8015610e385780601f10610e0d57610100808354040283529160200191610e38565b820191906000526020600020905b815481529060010190602001808311610e1b57829003601f168201915b505050505090806003015490806004015490806005015490806006018054610e5f90611dd9565b80601f0160208091040260200160405190810160405280929190818152602001828054610e8b90611dd9565b8015610ed85780601f10610ead57610100808354040283529160200191610ed8565b820191906000526020600020905b815481529060010190602001808311610ebb57829003601f168201915b5050505050908060070154908060080160009054906101000a900473ffffffffffffffffffffffffffffffffffffffff16905089565b60038181548110610f1e57600080fd5b9060005260206000209060090201600091509050806000015490806001018054610f4790611dd9565b80601f0160208091040260200160405190810160405280929190818152602001828054610f7390611dd9565b8015610fc05780601f10610f9557610100808354040283529160200191610fc0565b820191906000526020600020905b815481529060010190602001808311610fa357829003601f168201915b505050505090806002018054610fd590611dd9565b80601f016020809104026020016040519081016040528092919081815260200182805461100190611dd9565b801561104e5780601f106110235761010080835404028352916020019161104e565b820191906000526020600020905b81548152906001019060200180831161103157829003601f168201915b50505050509080600301549080600401549080600501549080600601805461107590611dd9565b80601f01602080910402602001604051908101604052809291908181526020018280546110a190611dd9565b80156110ee5780601f106110c3576101008083540402835291602001916110ee565b820191906000526020600020905b8154815290600101906020018083116110d157829003601f168201915b5050505050908060070154908060080160009054906101000a900473ffffffffffffffffffffffffffffffffffffffff16905089565b6060600260003373ffffffffffffffffffffffffffffffffffffffff1673ffffffffffffffffffffffffffffffffffffffff16815260200190815260200160002060009054906101000a900460ff166111b2576040517f08c379a00000000000000000000000000000000000000000000000000000000081526004016111a990612063565b60405180910390fd5b6000600380549050116111fa576040517f08c379a00000000000000000000000000000000000000000000000000000000081526004016111f190612410565b60405180910390fd5b6003805480602002602001604051908101604052809291908181526020016000905b8282101561148d5783829060005260206000209060090201604051806101200160405290816000820154815260200160018201805461125a90611dd9565b80601f016020809104026020016040519081016040528092919081815260200182805461128690611dd9565b80156112d35780601f106112a8576101008083540402835291602001916112d3565b820191906000526020600020905b8154815290600101906020018083116112b657829003601f168201915b505050505081526020016002820180546112ec90611dd9565b80601f016020809104026020016040519081016040528092919081815260200182805461131890611dd9565b80156113655780601f1061133a57610100808354040283529160200191611365565b820191906000526020600020905b81548152906001019060200180831161134857829003601f168201915b5050505050815260200160038201548152602001600482015481526020016005820154815260200160068201805461139c90611dd9565b80601f01602080910402602001604051908101604052809291908181526020018280546113c890611dd9565b80156114155780601f106113ea57610100808354040283529160200191611415565b820191906000526020600020905b8154815290600101906020018083116113f857829003601f168201915b50505050508152602001600782015481526020016008820160009054906101000a900473ffffffffffffffffffffffffffffffffffffffff1673ffffffffffffffffffffffffffffffffffffffff1673ffffffffffffffffffffffffffffffffffffffff16815250508152602001906001019061121c565b50505050905090565b600260003373ffffffffffffffffffffffffffffffffffffffff1673ffffffffffffffffffffffffffffffffffffffff16815260200190815260200160002060009054906101000a900460ff16611522576040517f08c379a000000000000000000000000000000000000000000000000000000000815260040161151990612063565b60405180910390fd5b600061153182600001356108df565b90507fffffffffffffffffffffffffffffffffffffffffffffffffffffffffffffffff811461159157816000828154811061156f5761156e611d7b565b5b906000526020600020906009020181816115899190612802565b9050506115cc565b600082908060018154018082558091505060019003906000526020600020906009020160009091909190915081816115c99190612802565b50505b600382908060018154018082558091505060019003906000526020600020906009020160009091909190915081816116049190612802565b50505050565b60026020528060005260406000206000915054906101000a900460ff1681565b600160009054906101000a900473ffffffffffffffffffffffffffffffffffffffff1681565b6040518061012001604052806000815260200160608152602001606081526020016000815260200160008152602001600081526020016060815260200160008152602001600073ffffffffffffffffffffffffffffffffffffffff1681525090565b5080546116be90611dd9565b6000825580601f106116d057506116ef565b601f0160209004906000526020600020908101906116ee91906116f2565b5b50565b5b8082111561170b5760008160009055506001016116f3565b5090565b600080fd5b600080fd5b600080fd5b600080fd5b600080fd5b60008083601f84011261173e5761173d611719565b5b8235905067ffffffffffffffff81111561175b5761175a61171e565b5b60208301915083600182028301111561177757611776611723565b5b9250929050565b600080602083850312156117955761179461170f565b5b600083013567ffffffffffffffff8111156117b3576117b2611714565b5b6117bf85828601611728565b92509250509250929050565b600081519050919050565b600082825260208201905092915050565b6000819050602082019050919050565b6000819050919050565b61180a816117f7565b82525050565b600081519050919050565b600082825260208201905092915050565b60005b8381101561184a57808201518184015260208101905061182f565b60008484015250505050565b6000601f19601f8301169050919050565b600061187282611810565b61187c818561181b565b935061188c81856020860161182c565b61189581611856565b840191505092915050565b600073ffffffffffffffffffffffffffffffffffffffff82169050919050565b60006118cb826118a0565b9050919050565b6118db816118c0565b82525050565b6000610120830160008301516118fa6000860182611801565b50602083015184820360208601526119128282611867565b9150506040830151848203604086015261192c8282611867565b91505060608301516119416060860182611801565b5060808301516119546080860182611801565b5060a083015161196760a0860182611801565b5060c083015184820360c086015261197f8282611867565b91505060e083015161199460e0860182611801565b506101008301516119a96101008601826118d2565b508091505092915050565b60006119c083836118e1565b905092915050565b6000602082019050919050565b60006119e0826117cb565b6119ea81856117d6565b9350836020820285016119fc856117e7565b8060005b85811015611a385784840389528151611a1985826119b4565b9450611a24836119c8565b925060208a01995050600181019050611a00565b50829750879550505050505092915050565b60006020820190508181036000830152611a6481846119d5565b905092915050565b611a75816118c0565b8114611a8057600080fd5b50565b600081359050611a9281611a6c565b92915050565b600060208284031215611aae57611aad61170f565b5b6000611abc84828501611a83565b91505092915050565b611ace816117f7565b8114611ad957600080fd5b50565b600081359050611aeb81611ac5565b92915050565b600060208284031215611b0757611b0661170f565b5b6000611b1584828501611adc565b91505092915050565b611b27816117f7565b82525050565b6000602082019050611b426000830184611b1e565b92915050565b600082825260208201905092915050565b6000611b6482611810565b611b6e8185611b48565b9350611b7e81856020860161182c565b611b8781611856565b840191505092915050565b611b9b816118c0565b82525050565b600061012082019050611bb7600083018c611b1e565b8181036020830152611bc9818b611b59565b90508181036040830152611bdd818a611b59565b9050611bec6060830189611b1e565b611bf96080830188611b1e565b611c0660a0830187611b1e565b81810360c0830152611c188186611b59565b9050611c2760e0830185611b1e565b611c35610100830184611b92565b9a9950505050505050505050565b600080fd5b60006101208284031215611c5f57611c5e611c43565b5b81905092915050565b600060208284031215611c7e57611c7d61170f565b5b600082013567ffffffffffffffff811115611c9c57611c9b611714565b5b611ca884828501611c48565b91505092915050565b60008115159050919050565b611cc681611cb1565b82525050565b6000602082019050611ce16000830184611cbd565b92915050565b6000611cf2826118a0565b9050919050565b611d0281611ce7565b82525050565b6000602082019050611d1d6000830184611cf9565b92915050565b600081905092915050565b82818337600083830152505050565b6000611d498385611d23565b9350611d56838584611d2e565b82840190509392505050565b6000611d6f828486611d3d565b91508190509392505050565b7f4e487b7100000000000000000000000000000000000000000000000000000000600052603260045260246000fd5b7f4e487b7100000000000000000000000000000000000000000000000000000000600052602260045260246000fd5b60006002820490506001821680611df157607f821691505b602082108103611e0457611e03611daa565b5b50919050565b60008190508160005260206000209050919050565b60008154611e2c81611dd9565b611e368186611d23565b94506001821660008114611e515760018114611e6657611e99565b60ff1983168652811515820286019350611e99565b611e6f85611e0a565b60005b83811015611e9157815481890152600182019150602081019050611e72565b838801955050505b50505092915050565b6000611eae8284611e1f565b915081905092915050565b7f4e487b7100000000000000000000000000000000000000000000000000000000600052601160045260246000fd5b6000611ef3826117f7565b91507fffffffffffffffffffffffffffffffffffffffffffffffffffffffffffffffff8203611f2557611f24611eb9565b5b600182019050919050565b7f4e487b7100000000000000000000000000000000000000000000000000000000600052604160045260246000fd5b7f4f6e6c792061646d696e2063616e2063616c6c20746869732066756e6374696f60008201527f6e00000000000000000000000000000000000000000000000000000000000000602082015250565b6000611fbb602183611b48565b9150611fc682611f5f565b604082019050919050565b60006020820190508181036000830152611fea81611fae565b9050919050565b7f4f6e6c7920617574686f72697a6564206164647265737365732063616e20636160008201527f6c6c20746869732066756e6374696f6e00000000000000000000000000000000602082015250565b600061204d603083611b48565b915061205882611ff1565b604082019050919050565b6000602082019050818103600083015261207c81612040565b9050919050565b600061208e826117f7565b9150612099836117f7565b92508282039050818111156120b1576120b0611eb9565b5b92915050565b60006120c2826117f7565b91506120cd836117f7565b92508282019050808211156120e5576120e4611eb9565b5b92915050565b6000815490506120fa81611dd9565b9050919050565b60008190508160005260206000209050919050565b60006020601f8301049050919050565b600082821b905092915050565b6000600883026121637fffffffffffffffffffffffffffffffffffffffffffffffffffffffffffffffff82612126565b61216d8683612126565b95508019841693508086168417925050509392505050565b6000819050919050565b60006121aa6121a56121a0846117f7565b612185565b6117f7565b9050919050565b6000819050919050565b6121c48361218f565b6121d86121d0826121b1565b848454612133565b825550505050565b600090565b6121ed6121e0565b6121f88184846121bb565b505050565b5b8181101561221c576122116000826121e5565b6001810190506121fe565b5050565b601f8211156122615761223281612101565b61223b84612116565b8101602085101561224a578190505b61225e61225685612116565b8301826121fd565b50505b505050565b600082821c905092915050565b600061228460001984600802612266565b1980831691505092915050565b600061229d8383612273565b9150826002028217905092915050565b8181036122bb575050612393565b6122c4826120eb565b67ffffffffffffffff8111156122dd576122dc611f30565b5b6122e78254611dd9565b6122f2828285612220565b6000601f831160018114612321576000841561230f578287015490505b6123198582612291565b86555061238c565b601f19841661232f87612101565b965061233a86612101565b60005b828110156123625784890154825560018201915060018501945060208101905061233d565b8683101561237f578489015461237b601f891682612273565b8355505b6001600288020188555050505b5050505050505b565b7f4e487b7100000000000000000000000000000000000000000000000000000000600052603160045260246000fd5b7f486973746f7279206973207374696c6c20656d70747900000000000000000000600082015250565b60006123fa601683611b48565b9150612405826123c4565b602082019050919050565b60006020820190508181036000830152612429816123ed565b9050919050565b6000813561243d81611ac5565b80915050919050565b60008160001b9050919050565b60007fffffffffffffffffffffffffffffffffffffffffffffffffffffffffffffffff61247f84612446565b9350801983169250808416831791505092915050565b61249e8261218f565b6124b16124aa826121b1565b8354612453565b8255505050565b600080fd5b600080fd5b600080fd5b600080833560016020038436030381126124e4576124e36124b8565b5b80840192508235915067ffffffffffffffff821115612506576125056124bd565b5b602083019250600182023603831315612522576125216124c2565b5b509250929050565b600082905092915050565b61253f838361252a565b67ffffffffffffffff81111561255857612557611f30565b5b6125628254611dd9565b61256d828285612220565b6000601f83116001811461259c576000841561258a578287013590505b6125948582612291565b8655506125fc565b601f1984166125aa86612101565b60005b828110156125d2578489013582556001820191506020850194506020810190506125ad565b868310156125ef57848901356125eb601f891682612273565b8355505b6001600288020188555050505b50505050505050565b612610838383612535565b505050565b6000813561262281611a6c565b80915050919050565b600073ffffffffffffffffffffffffffffffffffffffff61264b84612446565b9350801983169250808416831791505092915050565b600061267c612677612672846118a0565b612185565b6118a0565b9050919050565b600061268e82612661565b9050919050565b60006126a082612683565b9050919050565b6000819050919050565b6126ba82612695565b6126cd6126c6826126a7565b835461262b565b8255505050565b6000810160008301806126e681612430565b90506126f28184612495565b505050600181016020830161270781856124c7565b612712818386612605565b50505050600281016040830161272881856124c7565b612733818386612605565b5050505060038101606083018061274981612430565b90506127558184612495565b50505060048101608083018061276a81612430565b90506127768184612495565b5050506005810160a083018061278b81612430565b90506127978184612495565b5050506006810160c083016127ac81856124c7565b6127b7818386612605565b505050506007810160e08301806127cd81612430565b90506127d98184612495565b505050600881016101008301806127ef81612615565b90506127fb81846126b1565b5050505050565b61280c82826126d4565b505056fea2646970667358221220d6ca22fd0d6e8eca563dcb8c95367703be7aa7db666c98a005f593c7fa6de87864736f6c63430008110033",
  "immutableReferences": {},
  "source": "pragma solidity ^0.8.10;\r\n\r\nlibrary Shared {\r\n    struct RealState {\r\n        uint registration;\r\n        string city;\r\n        string street;\r\n        uint number;\r\n        uint meters;\r\n        uint price;\r\n        string owner;\r\n        uint timestamp;\r\n        address requester;\r\n    }\r\n}\r\n\r\ncontract RealStateContractCities {\r\n    mapping(string => Shared.RealState[]) public realStateMap;\r\n    address payable public admin  = payable(0x50d3b84a2b1787b7704DD50c67733b6b5B293629);\r\n    mapping(address => bool) public authorizedAddresses;\r\n    Shared.RealState[] public history;\r\n\r\n    constructor() {\r\n        authorizedAddresses[admin] = true;\r\n    }\r\n\r\n    modifier onlyAdministrator() {\r\n        require(msg.sender == admin, \"Only admin can call this function\");\r\n        _;\r\n    }\r\n\r\n    modifier onlyAuthorized() {\r\n        require(authorizedAddresses[msg.sender], \"Only authorized addresses can call this function\");\r\n        _;\r\n    }\r\n\r\n    function addAuthorizedAddress(address _address) public onlyAdministrator {\r\n        authorizedAddresses[_address] = true;\r\n    }\r\n\r\n    function removeAuthorizedAddress(address _address) public onlyAdministrator {\r\n        authorizedAddresses[_address] = false;\r\n    }\r\n\r\n    function getRealStateByCity (string calldata _city) public view returns(Shared.RealState[] memory) {\r\n        if (authorizedAddresses[msg.sender]) {\r\n            return realStateMap[_city];\r\n        } else {\r\n            Shared.RealState[] memory realStateMapWithoutPrice = realStateMap[_city];\r\n            for (uint i = 0; i < realStateMap[_city].length; i++) {\r\n                realStateMapWithoutPrice[i].price = 0;\r\n            }\r\n            return realStateMapWithoutPrice;\r\n        }\r\n    }\r\n\r\n    function addRealState (Shared.RealState calldata realState) public onlyAuthorized {\r\n        uint indexToUpdate = getRealState(realState);\r\n\r\n        if (indexToUpdate != type(uint).max) {\r\n            realStateMap[realState.city][indexToUpdate] = realState;\r\n        } else {\r\n            realStateMap[realState.city].push(realState);\r\n        }\r\n\r\n        history.push(realState);\r\n    }\r\n\r\n    function getRealState(Shared.RealState calldata realState) public view returns(uint) {\r\n        for(uint i = 0; i < realStateMap[realState.city].length; i++){\r\n            if (realStateMap[realState.city][i].registration == realState.registration){\r\n                return i;\r\n            }\r\n        }\r\n        return type(uint).max;\r\n    }\r\n\r\n    function deleteRealState(Shared.RealState calldata realState) public onlyAuthorized {\r\n        for(uint i =0; i < realStateMap[realState.city].length; i++){\r\n            if (realStateMap[realState.city][i].registration == realState.registration){\r\n                delete realStateMap[realState.city][i];\r\n\r\n                for(uint j =i; j < realStateMap[realState.city].length-1; j++){\r\n                    realStateMap[realState.city][j] = realStateMap[realState.city][j+1];\r\n                }\r\n\r\n                realStateMap[realState.city].pop(); // delete the last\r\n                // Important to reduce -1 the leght of array\r\n\r\n                return; // for finish method\r\n            }\r\n        }\r\n    }\r\n\r\n    function getHistory() public view onlyAuthorized returns(Shared.RealState[] memory) {\r\n        require(history.length > 0, \"History is still empty\");\r\n        return history;\r\n    }\r\n}\r\n\r\ncontract RealStateContract{\r\n    using Shared for Shared.RealState;\r\n\r\n    Shared.RealState[] public realStateArray;\r\n    address payable public admin  = payable(0x50d3b84a2b1787b7704DD50c67733b6b5B293629);\r\n    mapping(address => bool) public authorizedAddresses;\r\n    Shared.RealState[] public history;\r\n\r\n    constructor() {\r\n        authorizedAddresses[admin] = true;\r\n    }\r\n\r\n    modifier onlyAdministrator() {\r\n        require(msg.sender == admin, \"Only admin can call this function\");\r\n        _;\r\n    }\r\n\r\n    modifier onlyAuthorized() {\r\n        require(authorizedAddresses[msg.sender], \"Only authorized addresses can call this function\");\r\n        _;\r\n    }\r\n\r\n    function addAuthorizedAddress(address _address) public onlyAdministrator {\r\n        authorizedAddresses[_address] = true;\r\n    }\r\n\r\n    function removeAuthorizedAddress(address _address) public onlyAdministrator {\r\n        authorizedAddresses[_address] = false;\r\n    }\r\n\r\n    function addRealState(Shared.RealState calldata realState) public onlyAuthorized {        \r\n        uint indexToUpdate = getRealStateByRegistration(realState.registration);\r\n\r\n        if (indexToUpdate != type(uint).max) {\r\n            realStateArray[indexToUpdate] = realState;\r\n        } else {\r\n            realStateArray.push(realState);\r\n        }\r\n\r\n        history.push(realState);\r\n    }\r\n\r\n    function getRealStateByRegistration (uint _registration) public view returns(uint) {\r\n        for(uint i =0; i < realStateArray.length; i++){\r\n            if (realStateArray[i].registration == _registration){\r\n                return i;\r\n            }\r\n        }\r\n        return type(uint).max;\r\n    }\r\n\r\n    function deleteRealStateByRegistration(uint _registration) public onlyAuthorized {\r\n        for(uint i =0; i < realStateArray.length; i++){\r\n            if (realStateArray[i].registration == _registration){\r\n                delete realStateArray[i];\r\n\r\n                for(uint j =i; j < realStateArray.length-1; j++){\r\n                    realStateArray[j] = realStateArray[j+1];\r\n                }\r\n\r\n                realStateArray.pop(); // delete the last\r\n                // Important to reduce -1 the leght of array\r\n\r\n                return; // for finish method\r\n            }\r\n        }\r\n    }\r\n\r\n    function getRealStateByCity (string calldata _city) public view returns(Shared.RealState[] memory) {\r\n        uint resultLength = 0;\r\n        for(uint i =0; i < realStateArray.length; i++){\r\n            if (keccak256(bytes(realStateArray[i].city)) == keccak256(bytes(_city))){\r\n                resultLength++;\r\n            }\r\n        }\r\n        Shared.RealState[] memory rsReturn = new Shared.RealState[](resultLength);\r\n\r\n        uint positionInsert = 0;\r\n        for(uint i =0; i < realStateArray.length; i++){\r\n            if (keccak256(bytes(realStateArray[i].city)) == keccak256(bytes(_city))){\r\n                rsReturn[positionInsert] = realStateArray[i];\r\n                positionInsert++;\r\n            }\r\n        }\r\n\r\n        if (authorizedAddresses[msg.sender]) {\r\n            return rsReturn;\r\n        } else {\r\n            Shared.RealState[] memory realStateMapWithoutPrice = rsReturn;\r\n            for (uint i = 0; i < rsReturn.length; i++) {\r\n                realStateMapWithoutPrice[i].price = 0;\r\n            }\r\n            return realStateMapWithoutPrice;\r\n        }\r\n    }\r\n\r\n    function getHistory() public view onlyAuthorized returns(Shared.RealState[] memory) {\r\n        require(history.length > 0, \"History is still empty\");\r\n        return history;\r\n    }\r\n}\r\n\r\n",
  "sourcePath": "C:\\Users\\Casa\\Desktop\\NuevosEstandares\\EstructuraDeDatos\\bnb1\\contracts\\RealStateContract.sol",
  "compiler": {
    "name": "solc",
    "version": "0.8.17+commit.8df45f5f.Emscripten.clang"
  },
  "schemaVersion": "3.4.16",
  "updatedAt": "2024-01-09T11:07:50.795Z",
  "networkType": "ethereum",
  "devdoc": {
    "kind": "dev",
    "methods": {},
    "version": 1
  },
  "userdoc": {
    "kind": "user",
    "methods": {},
    "version": 1
  }
}