{
  "contractName": "RealStateContractCities",
  "abi": [
    {
      "inputs": [],
      "stateMutability": "nonpayable",
      "type": "constructor"
    },
    {
      "inputs": [],
      "name": "admin",
      "outputs": [
        {
          "internalType": "address payable",
          "name": "",
          "type": "address"
        }
      ],
      "stateMutability": "view",
      "type": "function",
      "constant": true
    },
    {
      "inputs": [
        {
          "internalType": "address",
          "name": "",
          "type": "address"
        }
      ],
      "name": "authorizedAddresses",
      "outputs": [
        {
          "internalType": "bool",
          "name": "",
          "type": "bool"
        }
      ],
      "stateMutability": "view",
      "type": "function",
      "constant": true
    },
    {
      "inputs": [
        {
          "internalType": "uint256",
          "name": "",
          "type": "uint256"
        }
      ],
      "name": "history",
      "outputs": [
        {
          "internalType": "uint256",
          "name": "registration",
          "type": "uint256"
        },
        {
          "internalType": "string",
          "name": "city",
          "type": "string"
        },
        {
          "internalType": "string",
          "name": "street",
          "type": "string"
        },
        {
          "internalType": "uint256",
          "name": "number",
          "type": "uint256"
        },
        {
          "internalType": "uint256",
          "name": "meters",
          "type": "uint256"
        },
        {
          "internalType": "uint256",
          "name": "price",
          "type": "uint256"
        },
        {
          "internalType": "string",
          "name": "owner",
          "type": "string"
        },
        {
          "internalType": "uint256",
          "name": "timestamp",
          "type": "uint256"
        },
        {
          "internalType": "address",
          "name": "requester",
          "type": "address"
        }
      ],
      "stateMutability": "view",
      "type": "function",
      "constant": true
    },
    {
      "inputs": [
        {
          "internalType": "string",
          "name": "",
          "type": "string"
        },
        {
          "internalType": "uint256",
          "name": "",
          "type": "uint256"
        }
      ],
      "name": "realStateMap",
      "outputs": [
        {
          "internalType": "uint256",
          "name": "registration",
          "type": "uint256"
        },
        {
          "internalType": "string",
          "name": "city",
          "type": "string"
        },
        {
          "internalType": "string",
          "name": "street",
          "type": "string"
        },
        {
          "internalType": "uint256",
          "name": "number",
          "type": "uint256"
        },
        {
          "internalType": "uint256",
          "name": "meters",
          "type": "uint256"
        },
        {
          "internalType": "uint256",
          "name": "price",
          "type": "uint256"
        },
        {
          "internalType": "string",
          "name": "owner",
          "type": "string"
        },
        {
          "internalType": "uint256",
          "name": "timestamp",
          "type": "uint256"
        },
        {
          "internalType": "address",
          "name": "requester",
          "type": "address"
        }
      ],
      "stateMutability": "view",
      "type": "function",
      "constant": true
    },
    {
      "inputs": [
        {
          "internalType": "address",
          "name": "_address",
          "type": "address"
        }
      ],
      "name": "addAuthorizedAddress",
      "outputs": [],
      "stateMutability": "nonpayable",
      "type": "function"
    },
    {
      "inputs": [
        {
          "internalType": "address",
          "name": "_address",
          "type": "address"
        }
      ],
      "name": "removeAuthorizedAddress",
      "outputs": [],
      "stateMutability": "nonpayable",
      "type": "function"
    },
    {
      "inputs": [
        {
          "internalType": "string",
          "name": "_city",
          "type": "string"
        }
      ],
      "name": "getRealStateByCity",
      "outputs": [
        {
          "components": [
            {
              "internalType": "uint256",
              "name": "registration",
              "type": "uint256"
            },
            {
              "internalType": "string",
              "name": "city",
              "type": "string"
            },
            {
              "internalType": "string",
              "name": "street",
              "type": "string"
            },
            {
              "internalType": "uint256",
              "name": "number",
              "type": "uint256"
            },
            {
              "internalType": "uint256",
              "name": "meters",
              "type": "uint256"
            },
            {
              "internalType": "uint256",
              "name": "price",
              "type": "uint256"
            },
            {
              "internalType": "string",
              "name": "owner",
              "type": "string"
            },
            {
              "internalType": "uint256",
              "name": "timestamp",
              "type": "uint256"
            },
            {
              "internalType": "address",
              "name": "requester",
              "type": "address"
            }
          ],
          "internalType": "struct Shared.RealState[]",
          "name": "",
          "type": "tuple[]"
        }
      ],
      "stateMutability": "view",
      "type": "function",
      "constant": true
    },
    {
      "inputs": [
        {
          "components": [
            {
              "internalType": "uint256",
              "name": "registration",
              "type": "uint256"
            },
            {
              "internalType": "string",
              "name": "city",
              "type": "string"
            },
            {
              "internalType": "string",
              "name": "street",
              "type": "string"
            },
            {
              "internalType": "uint256",
              "name": "number",
              "type": "uint256"
            },
            {
              "internalType": "uint256",
              "name": "meters",
              "type": "uint256"
            },
            {
              "internalType": "uint256",
              "name": "price",
              "type": "uint256"
            },
            {
              "internalType": "string",
              "name": "owner",
              "type": "string"
            },
            {
              "internalType": "uint256",
              "name": "timestamp",
              "type": "uint256"
            },
            {
              "internalType": "address",
              "name": "requester",
              "type": "address"
            }
          ],
          "internalType": "struct Shared.RealState",
          "name": "realState",
          "type": "tuple"
        }
      ],
      "name": "addRealState",
      "outputs": [],
      "stateMutability": "nonpayable",
      "type": "function"
    },
    {
      "inputs": [
        {
          "components": [
            {
              "internalType": "uint256",
              "name": "registration",
              "type": "uint256"
            },
            {
              "internalType": "string",
              "name": "city",
              "type": "string"
            },
            {
              "internalType": "string",
              "name": "street",
              "type": "string"
            },
            {
              "internalType": "uint256",
              "name": "number",
              "type": "uint256"
            },
            {
              "internalType": "uint256",
              "name": "meters",
              "type": "uint256"
            },
            {
              "internalType": "uint256",
              "name": "price",
              "type": "uint256"
            },
            {
              "internalType": "string",
              "name": "owner",
              "type": "string"
            },
            {
              "internalType": "uint256",
              "name": "timestamp",
              "type": "uint256"
            },
            {
              "internalType": "address",
              "name": "requester",
              "type": "address"
            }
          ],
          "internalType": "struct Shared.RealState",
          "name": "realState",
          "type": "tuple"
        }
      ],
      "name": "getRealState",
      "outputs": [
        {
          "internalType": "uint256",
          "name": "",
          "type": "uint256"
        }
      ],
      "stateMutability": "view",
      "type": "function",
      "constant": true
    },
    {
      "inputs": [
        {
          "components": [
            {
              "internalType": "uint256",
              "name": "registration",
              "type": "uint256"
            },
            {
              "internalType": "string",
              "name": "city",
              "type": "string"
            },
            {
              "internalType": "string",
              "name": "street",
              "type": "string"
            },
            {
              "internalType": "uint256",
              "name": "number",
              "type": "uint256"
            },
            {
              "internalType": "uint256",
              "name": "meters",
              "type": "uint256"
            },
            {
              "internalType": "uint256",
              "name": "price",
              "type": "uint256"
            },
            {
              "internalType": "string",
              "name": "owner",
              "type": "string"
            },
            {
              "internalType": "uint256",
              "name": "timestamp",
              "type": "uint256"
            },
            {
              "internalType": "address",
              "name": "requester",
              "type": "address"
            }
          ],
          "internalType": "struct Shared.RealState",
          "name": "realState",
          "type": "tuple"
        }
      ],
      "name": "deleteRealState",
      "outputs": [],
      "stateMutability": "nonpayable",
      "type": "function"
    },
    {
      "inputs": [],
      "name": "getHistory",
      "outputs": [
        {
          "components": [
            {
              "internalType": "uint256",
              "name": "registration",
              "type": "uint256"
            },
            {
              "internalType": "string",
              "name": "city",
              "type": "string"
            },
            {
              "internalType": "string",
              "name": "street",
              "type": "string"
            },
            {
              "internalType": "uint256",
              "name": "number",
              "type": "uint256"
            },
            {
              "internalType": "uint256",
              "name": "meters",
              "type": "uint256"
            },
            {
              "internalType": "uint256",
              "name": "price",
              "type": "uint256"
            },
            {
              "internalType": "string",
              "name": "owner",
              "type": "string"
            },
            {
              "internalType": "uint256",
              "name": "timestamp",
              "type": "uint256"
            },
            {
              "internalType": "address",
              "name": "requester",
              "type": "address"
            }
          ],
          "internalType": "struct Shared.RealState[]",
          "name": "",
          "type": "tuple[]"
        }
      ],
      "stateMutability": "view",
      "type": "function",
      "constant": true
    }
  ],
  "bytecode": "0x60806040527350d3b84a2b1787b7704dd50c67733b6b5b293629600160006101000a81548173ffffffffffffffffffffffffffffffffffffffff021916908373ffffffffffffffffffffffffffffffffffffffff16021790555034801561006557600080fd5b50600160026000600160009054906101000a900473ffffffffffffffffffffffffffffffffffffffff1673ffffffffffffffffffffffffffffffffffffffff1673ffffffffffffffffffffffffffffffffffffffff16815260200190815260200160002060006101000a81548160ff021916908315150217905550612c23806100ef6000396000f3fe608060405234801561001057600080fd5b50600436106100a95760003560e01c8063a7a38f0b11610071578063a7a38f0b1461017e578063aa15efc8146101b6578063aba7ac27146101d4578063cc8c982f146101f0578063f19e207e1461020c578063f851a4401461023c576100a9565b80630de06237146100ae57806342f1181e146100de57806370712939146100fa5780637946bcf414610116578063a110b89a1461014e575b600080fd5b6100c860048036038101906100c39190611abc565b61025a565b6040516100d59190611d88565b60405180910390f35b6100f860048036038101906100f39190611dd6565b610894565b005b610114600480360381019061010f9190611dd6565b61097f565b005b610130600480360381019061012b9190611f5f565b610a6a565b60405161014599989796959493929190612023565b60405180910390f35b610168600480360381019061016391906120ea565b610ca3565b6040516101759190612133565b60405180910390f35b6101986004803603810190610193919061214e565b610d86565b6040516101ad99989796959493929190612023565b60405180910390f35b6101be610f9c565b6040516101cb9190611d88565b60405180910390f35b6101ee60048036038101906101e991906120ea565b61130e565b005b61020a600480360381019061020591906120ea565b6117d8565b005b61022660048036038101906102219190611dd6565b6119a0565b6040516102339190612196565b60405180910390f35b6102446119c0565b60405161025191906121d2565b60405180910390f35b6060600260003373ffffffffffffffffffffffffffffffffffffffff1673ffffffffffffffffffffffffffffffffffffffff16815260200190815260200160002060009054906101000a900460ff161561056a57600083836040516102c092919061221d565b9081526020016040518091039020805480602002602001604051908101604052809291908181526020016000905b8282101561055f5783829060005260206000209060090201604051806101200160405290816000820154815260200160018201805461032c90612265565b80601f016020809104026020016040519081016040528092919081815260200182805461035890612265565b80156103a55780601f1061037a576101008083540402835291602001916103a5565b820191906000526020600020905b81548152906001019060200180831161038857829003601f168201915b505050505081526020016002820180546103be90612265565b80601f01602080910402602001604051908101604052809291908181526020018280546103ea90612265565b80156104375780601f1061040c57610100808354040283529160200191610437565b820191906000526020600020905b81548152906001019060200180831161041a57829003601f168201915b5050505050815260200160038201548152602001600482015481526020016005820154815260200160068201805461046e90612265565b80601f016020809104026020016040519081016040528092919081815260200182805461049a90612265565b80156104e75780601f106104bc576101008083540402835291602001916104e7565b820191906000526020600020905b8154815290600101906020018083116104ca57829003601f168201915b50505050508152602001600782015481526020016008820160009054906101000a900473ffffffffffffffffffffffffffffffffffffffff1673ffffffffffffffffffffffffffffffffffffffff1673ffffffffffffffffffffffffffffffffffffffff1681525050815260200190600101906102ee565b50505050905061088e565b600080848460405161057d92919061221d565b9081526020016040518091039020805480602002602001604051908101604052809291908181526020016000905b8282101561081c578382906000526020600020906009020160405180610120016040529081600082015481526020016001820180546105e990612265565b80601f016020809104026020016040519081016040528092919081815260200182805461061590612265565b80156106625780601f1061063757610100808354040283529160200191610662565b820191906000526020600020905b81548152906001019060200180831161064557829003601f168201915b5050505050815260200160028201805461067b90612265565b80601f01602080910402602001604051908101604052809291908181526020018280546106a790612265565b80156106f45780601f106106c9576101008083540402835291602001916106f4565b820191906000526020600020905b8154815290600101906020018083116106d757829003601f168201915b5050505050815260200160038201548152602001600482015481526020016005820154815260200160068201805461072b90612265565b80601f016020809104026020016040519081016040528092919081815260200182805461075790612265565b80156107a45780601f10610779576101008083540402835291602001916107a4565b820191906000526020600020905b81548152906001019060200180831161078757829003601f168201915b50505050508152602001600782015481526020016008820160009054906101000a900473ffffffffffffffffffffffffffffffffffffffff1673ffffffffffffffffffffffffffffffffffffffff1673ffffffffffffffffffffffffffffffffffffffff1681525050815260200190600101906105ab565b50505050905060005b6000858560405161083792919061221d565b90815260200160405180910390208054905081101561088857600082828151811061086557610864612296565b5b602002602001015160a00181815250508080610880906122f4565b915050610825565b50809150505b92915050565b600160009054906101000a900473ffffffffffffffffffffffffffffffffffffffff1673ffffffffffffffffffffffffffffffffffffffff163373ffffffffffffffffffffffffffffffffffffffff1614610924576040517f08c379a000000000000000000000000000000000000000000000000000000000815260040161091b906123ae565b60405180910390fd5b6001600260008373ffffffffffffffffffffffffffffffffffffffff1673ffffffffffffffffffffffffffffffffffffffff16815260200190815260200160002060006101000a81548160ff02191690831515021790555050565b600160009054906101000a900473ffffffffffffffffffffffffffffffffffffffff1673ffffffffffffffffffffffffffffffffffffffff163373ffffffffffffffffffffffffffffffffffffffff1614610a0f576040517f08c379a0000000000000000000000000000000000000000000000000000000008152600401610a06906123ae565b60405180910390fd5b6000600260008373ffffffffffffffffffffffffffffffffffffffff1673ffffffffffffffffffffffffffffffffffffffff16815260200190815260200160002060006101000a81548160ff02191690831515021790555050565b6000828051602081018201805184825260208301602085012081835280955050505050508181548110610a9c57600080fd5b906000526020600020906009020160009150915050806000015490806001018054610ac690612265565b80601f0160208091040260200160405190810160405280929190818152602001828054610af290612265565b8015610b3f5780601f10610b1457610100808354040283529160200191610b3f565b820191906000526020600020905b815481529060010190602001808311610b2257829003601f168201915b505050505090806002018054610b5490612265565b80601f0160208091040260200160405190810160405280929190818152602001828054610b8090612265565b8015610bcd5780601f10610ba257610100808354040283529160200191610bcd565b820191906000526020600020905b815481529060010190602001808311610bb057829003601f168201915b505050505090806003015490806004015490806005015490806006018054610bf490612265565b80601f0160208091040260200160405190810160405280929190818152602001828054610c2090612265565b8015610c6d5780601f10610c4257610100808354040283529160200191610c6d565b820191906000526020600020905b815481529060010190602001808311610c5057829003601f168201915b5050505050908060070154908060080160009054906101000a900473ffffffffffffffffffffffffffffffffffffffff16905089565b600080600090505b6000838060200190610cbd91906123dd565b604051610ccb92919061221d565b908152602001604051809103902080549050811015610d5c5782600001356000848060200190610cfb91906123dd565b604051610d0992919061221d565b90815260200160405180910390208281548110610d2957610d28612296565b5b90600052602060002090600902016000015403610d495780915050610d81565b8080610d54906122f4565b915050610cab565b507fffffffffffffffffffffffffffffffffffffffffffffffffffffffffffffffff90505b919050565b60038181548110610d9657600080fd5b9060005260206000209060090201600091509050806000015490806001018054610dbf90612265565b80601f0160208091040260200160405190810160405280929190818152602001828054610deb90612265565b8015610e385780601f10610e0d57610100808354040283529160200191610e38565b820191906000526020600020905b815481529060010190602001808311610e1b57829003601f168201915b505050505090806002018054610e4d90612265565b80601f0160208091040260200160405190810160405280929190818152602001828054610e7990612265565b8015610ec65780601f10610e9b57610100808354040283529160200191610ec6565b820191906000526020600020905b815481529060010190602001808311610ea957829003601f168201915b505050505090806003015490806004015490806005015490806006018054610eed90612265565b80601f0160208091040260200160405190810160405280929190818152602001828054610f1990612265565b8015610f665780601f10610f3b57610100808354040283529160200191610f66565b820191906000526020600020905b815481529060010190602001808311610f4957829003601f168201915b5050505050908060070154908060080160009054906101000a900473ffffffffffffffffffffffffffffffffffffffff16905089565b6060600260003373ffffffffffffffffffffffffffffffffffffffff1673ffffffffffffffffffffffffffffffffffffffff16815260200190815260200160002060009054906101000a900460ff1661102a576040517f08c379a0000000000000000000000000000000000000000000000000000000008152600401611021906124b2565b60405180910390fd5b600060038054905011611072576040517f08c379a00000000000000000000000000000000000000000000000000000000081526004016110699061251e565b60405180910390fd5b6003805480602002602001604051908101604052809291908181526020016000905b82821015611305578382906000526020600020906009020160405180610120016040529081600082015481526020016001820180546110d290612265565b80601f01602080910402602001604051908101604052809291908181526020018280546110fe90612265565b801561114b5780601f106111205761010080835404028352916020019161114b565b820191906000526020600020905b81548152906001019060200180831161112e57829003601f168201915b5050505050815260200160028201805461116490612265565b80601f016020809104026020016040519081016040528092919081815260200182805461119090612265565b80156111dd5780601f106111b2576101008083540402835291602001916111dd565b820191906000526020600020905b8154815290600101906020018083116111c057829003601f168201915b5050505050815260200160038201548152602001600482015481526020016005820154815260200160068201805461121490612265565b80601f016020809104026020016040519081016040528092919081815260200182805461124090612265565b801561128d5780601f106112625761010080835404028352916020019161128d565b820191906000526020600020905b81548152906001019060200180831161127057829003601f168201915b50505050508152602001600782015481526020016008820160009054906101000a900473ffffffffffffffffffffffffffffffffffffffff1673ffffffffffffffffffffffffffffffffffffffff1673ffffffffffffffffffffffffffffffffffffffff168152505081526020019060010190611094565b50505050905090565b600260003373ffffffffffffffffffffffffffffffffffffffff1673ffffffffffffffffffffffffffffffffffffffff16815260200190815260200160002060009054906101000a900460ff1661139a576040517f08c379a0000000000000000000000000000000000000000000000000000000008152600401611391906124b2565b60405180910390fd5b60005b60008280602001906113af91906123dd565b6040516113bd92919061221d565b9081526020016040518091039020805490508110156117d357816000013560008380602001906113ed91906123dd565b6040516113fb92919061221d565b9081526020016040518091039020828154811061141b5761141a612296565b5b906000526020600020906009020160000154036117c057600082806020019061144491906123dd565b60405161145292919061221d565b9081526020016040518091039020818154811061147257611471612296565b5b906000526020600020906009020160008082016000905560018201600061149991906119e6565b6002820160006114a991906119e6565b6003820160009055600482016000905560058201600090556006820160006114d191906119e6565b60078201600090556008820160006101000a81549073ffffffffffffffffffffffffffffffffffffffff0219169055505060008190505b6001600084806020019061151c91906123dd565b60405161152a92919061221d565b908152602001604051809103902080549050611546919061253e565b8110156116e357600083806020019061155f91906123dd565b60405161156d92919061221d565b90815260200160405180910390206001826115889190612572565b8154811061159957611598612296565b5b906000526020600020906009020160008480602001906115b991906123dd565b6040516115c792919061221d565b908152602001604051809103902082815481106115e7576115e6612296565b5b906000526020600020906009020160008201548160000155600182018160010190816116139190612768565b50600282018160020190816116289190612768565b506003820154816003015560048201548160040155600582015481600501556006820181600601908161165b9190612768565b50600782015481600701556008820160009054906101000a900473ffffffffffffffffffffffffffffffffffffffff168160080160006101000a81548173ffffffffffffffffffffffffffffffffffffffff021916908373ffffffffffffffffffffffffffffffffffffffff16021790555090505080806116db906122f4565b915050611508565b5060008280602001906116f691906123dd565b60405161170492919061221d565b908152602001604051809103902080548061172257611721612850565b5b600190038181906000526020600020906009020160008082016000905560018201600061174f91906119e6565b60028201600061175f91906119e6565b60038201600090556004820160009055600582016000905560068201600061178791906119e6565b60078201600090556008820160006101000a81549073ffffffffffffffffffffffffffffffffffffffff021916905550509055506117d5565b80806117cb906122f4565b91505061139d565b505b50565b600260003373ffffffffffffffffffffffffffffffffffffffff1673ffffffffffffffffffffffffffffffffffffffff16815260200190815260200160002060009054906101000a900460ff16611864576040517f08c379a000000000000000000000000000000000000000000000000000000000815260040161185b906124b2565b60405180910390fd5b600061186f82610ca3565b90507fffffffffffffffffffffffffffffffffffffffffffffffffffffffffffffffff81146118fb578160008380602001906118ab91906123dd565b6040516118b992919061221d565b908152602001604051809103902082815481106118d9576118d8612296565b5b906000526020600020906009020181816118f39190612bdf565b905050611962565b600082806020019061190d91906123dd565b60405161191b92919061221d565b9081526020016040518091039020829080600181540180825580915050600190039060005260206000209060090201600090919091909150818161195f9190612bdf565b50505b6003829080600181540180825580915050600190039060005260206000209060090201600090919091909150818161199a9190612bdf565b50505050565b60026020528060005260406000206000915054906101000a900460ff1681565b600160009054906101000a900473ffffffffffffffffffffffffffffffffffffffff1681565b5080546119f290612265565b6000825580601f10611a045750611a23565b601f016020900490600052602060002090810190611a229190611a26565b5b50565b5b80821115611a3f576000816000905550600101611a27565b5090565b6000604051905090565b600080fd5b600080fd5b600080fd5b600080fd5b600080fd5b60008083601f840112611a7c57611a7b611a57565b5b8235905067ffffffffffffffff811115611a9957611a98611a5c565b5b602083019150836001820283011115611ab557611ab4611a61565b5b9250929050565b60008060208385031215611ad357611ad2611a4d565b5b600083013567ffffffffffffffff811115611af157611af0611a52565b5b611afd85828601611a66565b92509250509250929050565b600081519050919050565b600082825260208201905092915050565b6000819050602082019050919050565b6000819050919050565b611b4881611b35565b82525050565b600081519050919050565b600082825260208201905092915050565b60005b83811015611b88578082015181840152602081019050611b6d565b60008484015250505050565b6000601f19601f8301169050919050565b6000611bb082611b4e565b611bba8185611b59565b9350611bca818560208601611b6a565b611bd381611b94565b840191505092915050565b600073ffffffffffffffffffffffffffffffffffffffff82169050919050565b6000611c0982611bde565b9050919050565b611c1981611bfe565b82525050565b600061012083016000830151611c386000860182611b3f565b5060208301518482036020860152611c508282611ba5565b91505060408301518482036040860152611c6a8282611ba5565b9150506060830151611c7f6060860182611b3f565b506080830151611c926080860182611b3f565b5060a0830151611ca560a0860182611b3f565b5060c083015184820360c0860152611cbd8282611ba5565b91505060e0830151611cd260e0860182611b3f565b50610100830151611ce7610100860182611c10565b508091505092915050565b6000611cfe8383611c1f565b905092915050565b6000602082019050919050565b6000611d1e82611b09565b611d288185611b14565b935083602082028501611d3a85611b25565b8060005b85811015611d765784840389528151611d578582611cf2565b9450611d6283611d06565b925060208a01995050600181019050611d3e565b50829750879550505050505092915050565b60006020820190508181036000830152611da28184611d13565b905092915050565b611db381611bfe565b8114611dbe57600080fd5b50565b600081359050611dd081611daa565b92915050565b600060208284031215611dec57611deb611a4d565b5b6000611dfa84828501611dc1565b91505092915050565b600080fd5b7f4e487b7100000000000000000000000000000000000000000000000000000000600052604160045260246000fd5b611e4082611b94565b810181811067ffffffffffffffff82111715611e5f57611e5e611e08565b5b80604052505050565b6000611e72611a43565b9050611e7e8282611e37565b919050565b600067ffffffffffffffff821115611e9e57611e9d611e08565b5b611ea782611b94565b9050602081019050919050565b82818337600083830152505050565b6000611ed6611ed184611e83565b611e68565b905082815260208101848484011115611ef257611ef1611e03565b5b611efd848285611eb4565b509392505050565b600082601f830112611f1a57611f19611a57565b5b8135611f2a848260208601611ec3565b91505092915050565b611f3c81611b35565b8114611f4757600080fd5b50565b600081359050611f5981611f33565b92915050565b60008060408385031215611f7657611f75611a4d565b5b600083013567ffffffffffffffff811115611f9457611f93611a52565b5b611fa085828601611f05565b9250506020611fb185828601611f4a565b9150509250929050565b611fc481611b35565b82525050565b600082825260208201905092915050565b6000611fe682611b4e565b611ff08185611fca565b9350612000818560208601611b6a565b61200981611b94565b840191505092915050565b61201d81611bfe565b82525050565b600061012082019050612039600083018c611fbb565b818103602083015261204b818b611fdb565b9050818103604083015261205f818a611fdb565b905061206e6060830189611fbb565b61207b6080830188611fbb565b61208860a0830187611fbb565b81810360c083015261209a8186611fdb565b90506120a960e0830185611fbb565b6120b7610100830184612014565b9a9950505050505050505050565b600080fd5b600061012082840312156120e1576120e06120c5565b5b81905092915050565b600060208284031215612100576120ff611a4d565b5b600082013567ffffffffffffffff81111561211e5761211d611a52565b5b61212a848285016120ca565b91505092915050565b60006020820190506121486000830184611fbb565b92915050565b60006020828403121561216457612163611a4d565b5b600061217284828501611f4a565b91505092915050565b60008115159050919050565b6121908161217b565b82525050565b60006020820190506121ab6000830184612187565b92915050565b60006121bc82611bde565b9050919050565b6121cc816121b1565b82525050565b60006020820190506121e760008301846121c3565b92915050565b600081905092915050565b600061220483856121ed565b9350612211838584611eb4565b82840190509392505050565b600061222a8284866121f8565b91508190509392505050565b7f4e487b7100000000000000000000000000000000000000000000000000000000600052602260045260246000fd5b6000600282049050600182168061227d57607f821691505b6020821081036122905761228f612236565b5b50919050565b7f4e487b7100000000000000000000000000000000000000000000000000000000600052603260045260246000fd5b7f4e487b7100000000000000000000000000000000000000000000000000000000600052601160045260246000fd5b60006122ff82611b35565b91507fffffffffffffffffffffffffffffffffffffffffffffffffffffffffffffffff8203612331576123306122c5565b5b600182019050919050565b7f4f6e6c792061646d696e2063616e2063616c6c20746869732066756e6374696f60008201527f6e00000000000000000000000000000000000000000000000000000000000000602082015250565b6000612398602183611fca565b91506123a38261233c565b604082019050919050565b600060208201905081810360008301526123c78161238b565b9050919050565b600080fd5b600080fd5b600080fd5b600080833560016020038436030381126123fa576123f96123ce565b5b80840192508235915067ffffffffffffffff82111561241c5761241b6123d3565b5b602083019250600182023603831315612438576124376123d8565b5b509250929050565b7f4f6e6c7920617574686f72697a6564206164647265737365732063616e20636160008201527f6c6c20746869732066756e6374696f6e00000000000000000000000000000000602082015250565b600061249c603083611fca565b91506124a782612440565b604082019050919050565b600060208201905081810360008301526124cb8161248f565b9050919050565b7f486973746f7279206973207374696c6c20656d70747900000000000000000000600082015250565b6000612508601683611fca565b9150612513826124d2565b602082019050919050565b60006020820190508181036000830152612537816124fb565b9050919050565b600061254982611b35565b915061255483611b35565b925082820390508181111561256c5761256b6122c5565b5b92915050565b600061257d82611b35565b915061258883611b35565b92508282019050808211156125a05761259f6122c5565b5b92915050565b6000815490506125b581612265565b9050919050565b60008190508160005260206000209050919050565b60006020601f8301049050919050565b600082821b905092915050565b60006008830261261e7fffffffffffffffffffffffffffffffffffffffffffffffffffffffffffffffff826125e1565b61262886836125e1565b95508019841693508086168417925050509392505050565b6000819050919050565b600061266561266061265b84611b35565b612640565b611b35565b9050919050565b6000819050919050565b61267f8361264a565b61269361268b8261266c565b8484546125ee565b825550505050565b600090565b6126a861269b565b6126b3818484612676565b505050565b5b818110156126d7576126cc6000826126a0565b6001810190506126b9565b5050565b601f82111561271c576126ed816125bc565b6126f6846125d1565b81016020851015612705578190505b612719612711856125d1565b8301826126b8565b50505b505050565b600082821c905092915050565b600061273f60001984600802612721565b1980831691505092915050565b6000612758838361272e565b9150826002028217905092915050565b81810361277657505061284e565b61277f826125a6565b67ffffffffffffffff81111561279857612797611e08565b5b6127a28254612265565b6127ad8282856126db565b6000601f8311600181146127dc57600084156127ca578287015490505b6127d4858261274c565b865550612847565b601f1984166127ea876125bc565b96506127f5866125bc565b60005b8281101561281d578489015482556001820191506001850194506020810190506127f8565b8683101561283a5784890154612836601f89168261272e565b8355505b6001600288020188555050505b5050505050505b565b7f4e487b7100000000000000000000000000000000000000000000000000000000600052603160045260246000fd5b6000813561288c81611f33565b80915050919050565b60008160001b9050919050565b60007fffffffffffffffffffffffffffffffffffffffffffffffffffffffffffffffff6128ce84612895565b9350801983169250808416831791505092915050565b6128ed8261264a565b6129006128f98261266c565b83546128a2565b8255505050565b600082905092915050565b61291c8383612907565b67ffffffffffffffff81111561293557612934611e08565b5b61293f8254612265565b61294a8282856126db565b6000601f8311600181146129795760008415612967578287013590505b612971858261274c565b8655506129d9565b601f198416612987866125bc565b60005b828110156129af5784890135825560018201915060208501945060208101905061298a565b868310156129cc57848901356129c8601f89168261272e565b8355505b6001600288020188555050505b50505050505050565b6129ed838383612912565b505050565b600081356129ff81611daa565b80915050919050565b600073ffffffffffffffffffffffffffffffffffffffff612a2884612895565b9350801983169250808416831791505092915050565b6000612a59612a54612a4f84611bde565b612640565b611bde565b9050919050565b6000612a6b82612a3e565b9050919050565b6000612a7d82612a60565b9050919050565b6000819050919050565b612a9782612a72565b612aaa612aa382612a84565b8354612a08565b8255505050565b600081016000830180612ac38161287f565b9050612acf81846128e4565b5050506001810160208301612ae481856123dd565b612aef8183866129e2565b505050506002810160408301612b0581856123dd565b612b108183866129e2565b50505050600381016060830180612b268161287f565b9050612b3281846128e4565b505050600481016080830180612b478161287f565b9050612b5381846128e4565b5050506005810160a0830180612b688161287f565b9050612b7481846128e4565b5050506006810160c08301612b8981856123dd565b612b948183866129e2565b505050506007810160e0830180612baa8161287f565b9050612bb681846128e4565b50505060088101610100830180612bcc816129f2565b9050612bd88184612a8e565b5050505050565b612be98282612ab1565b505056fea264697066735822122008668cd121977a44d77c9bb8ea4c5b51a0f178aef730d1be4b391b8ef96e2dd264736f6c63430008110033",
  "immutableReferences": {},
  "source": "pragma solidity ^0.8.10;\r\n\r\nlibrary Shared {\r\n    struct RealState {\r\n        uint registration;\r\n        string city;\r\n        string street;\r\n        uint number;\r\n        uint meters;\r\n        uint price;\r\n        string owner;\r\n        uint timestamp;\r\n        address requester;\r\n    }\r\n}\r\n\r\ncontract RealStateContractCities {\r\n    mapping(string => Shared.RealState[]) public realStateMap;\r\n    address payable public admin  = payable(0x50d3b84a2b1787b7704DD50c67733b6b5B293629);\r\n    mapping(address => bool) public authorizedAddresses;\r\n    Shared.RealState[] public history;\r\n\r\n    constructor() {\r\n        authorizedAddresses[admin] = true;\r\n    }\r\n\r\n    modifier onlyAdministrator() {\r\n        require(msg.sender == admin, \"Only admin can call this function\");\r\n        _;\r\n    }\r\n\r\n    modifier onlyAuthorized() {\r\n        require(authorizedAddresses[msg.sender], \"Only authorized addresses can call this function\");\r\n        _;\r\n    }\r\n\r\n    function addAuthorizedAddress(address _address) public onlyAdministrator {\r\n        authorizedAddresses[_address] = true;\r\n    }\r\n\r\n    function removeAuthorizedAddress(address _address) public onlyAdministrator {\r\n        authorizedAddresses[_address] = false;\r\n    }\r\n\r\n    function getRealStateByCity (string calldata _city) public view returns(Shared.RealState[] memory) {\r\n        if (authorizedAddresses[msg.sender]) {\r\n            return realStateMap[_city];\r\n        } else {\r\n            Shared.RealState[] memory realStateMapWithoutPrice = realStateMap[_city];\r\n            for (uint i = 0; i < realStateMap[_city].length; i++) {\r\n                realStateMapWithoutPrice[i].price = 0;\r\n            }\r\n            return realStateMapWithoutPrice;\r\n        }\r\n    }\r\n\r\n    function addRealState (Shared.RealState calldata realState) public onlyAuthorized {\r\n        uint indexToUpdate = getRealState(realState);\r\n\r\n        if (indexToUpdate != type(uint).max) {\r\n            realStateMap[realState.city][indexToUpdate] = realState;\r\n        } else {\r\n            realStateMap[realState.city].push(realState);\r\n        }\r\n\r\n        history.push(realState);\r\n    }\r\n\r\n    function getRealState(Shared.RealState calldata realState) public view returns(uint) {\r\n        for(uint i = 0; i < realStateMap[realState.city].length; i++){\r\n            if (realStateMap[realState.city][i].registration == realState.registration){\r\n                return i;\r\n            }\r\n        }\r\n        return type(uint).max;\r\n    }\r\n\r\n    function deleteRealState(Shared.RealState calldata realState) public onlyAuthorized {\r\n        for(uint i =0; i < realStateMap[realState.city].length; i++){\r\n            if (realStateMap[realState.city][i].registration == realState.registration){\r\n                delete realStateMap[realState.city][i];\r\n\r\n                for(uint j =i; j < realStateMap[realState.city].length-1; j++){\r\n                    realStateMap[realState.city][j] = realStateMap[realState.city][j+1];\r\n                }\r\n\r\n                realStateMap[realState.city].pop(); // delete the last\r\n                // Important to reduce -1 the leght of array\r\n\r\n                return; // for finish method\r\n            }\r\n        }\r\n    }\r\n\r\n    function getHistory() public view onlyAuthorized returns(Shared.RealState[] memory) {\r\n        require(history.length > 0, \"History is still empty\");\r\n        return history;\r\n    }\r\n}\r\n\r\ncontract RealStateContract{\r\n    using Shared for Shared.RealState;\r\n\r\n    Shared.RealState[] public realStateArray;\r\n    address payable public admin  = payable(0x50d3b84a2b1787b7704DD50c67733b6b5B293629);\r\n    mapping(address => bool) public authorizedAddresses;\r\n    Shared.RealState[] public history;\r\n\r\n    constructor() {\r\n        authorizedAddresses[admin] = true;\r\n    }\r\n\r\n    modifier onlyAdministrator() {\r\n        require(msg.sender == admin, \"Only admin can call this function\");\r\n        _;\r\n    }\r\n\r\n    modifier onlyAuthorized() {\r\n        require(authorizedAddresses[msg.sender], \"Only authorized addresses can call this function\");\r\n        _;\r\n    }\r\n\r\n    function addAuthorizedAddress(address _address) public onlyAdministrator {\r\n        authorizedAddresses[_address] = true;\r\n    }\r\n\r\n    function removeAuthorizedAddress(address _address) public onlyAdministrator {\r\n        authorizedAddresses[_address] = false;\r\n    }\r\n\r\n    function addRealState(Shared.RealState calldata realState) public onlyAuthorized {        \r\n        uint indexToUpdate = getRealStateByRegistration(realState.registration);\r\n\r\n        if (indexToUpdate != type(uint).max) {\r\n            realStateArray[indexToUpdate] = realState;\r\n        } else {\r\n            realStateArray.push(realState);\r\n        }\r\n\r\n        history.push(realState);\r\n    }\r\n\r\n    function getRealStateByRegistration (uint _registration) public view returns(uint) {\r\n        for(uint i =0; i < realStateArray.length; i++){\r\n            if (realStateArray[i].registration == _registration){\r\n                return i;\r\n            }\r\n        }\r\n        return type(uint).max;\r\n    }\r\n\r\n    function deleteRealStateByRegistration(uint _registration) public onlyAuthorized {\r\n        for(uint i =0; i < realStateArray.length; i++){\r\n            if (realStateArray[i].registration == _registration){\r\n                delete realStateArray[i];\r\n\r\n                for(uint j =i; j < realStateArray.length-1; j++){\r\n                    realStateArray[j] = realStateArray[j+1];\r\n                }\r\n\r\n                realStateArray.pop(); // delete the last\r\n                // Important to reduce -1 the leght of array\r\n\r\n                return; // for finish method\r\n            }\r\n        }\r\n    }\r\n\r\n    function getRealStateByCity (string calldata _city) public view returns(Shared.RealState[] memory) {\r\n        uint resultLength = 0;\r\n        for(uint i =0; i < realStateArray.length; i++){\r\n            if (keccak256(bytes(realStateArray[i].city)) == keccak256(bytes(_city))){\r\n                resultLength++;\r\n            }\r\n        }\r\n        Shared.RealState[] memory rsReturn = new Shared.RealState[](resultLength);\r\n\r\n        uint positionInsert = 0;\r\n        for(uint i =0; i < realStateArray.length; i++){\r\n            if (keccak256(bytes(realStateArray[i].city)) == keccak256(bytes(_city))){\r\n                rsReturn[positionInsert] = realStateArray[i];\r\n                positionInsert++;\r\n            }\r\n        }\r\n\r\n        if (authorizedAddresses[msg.sender]) {\r\n            return rsReturn;\r\n        } else {\r\n            Shared.RealState[] memory realStateMapWithoutPrice = rsReturn;\r\n            for (uint i = 0; i < rsReturn.length; i++) {\r\n                realStateMapWithoutPrice[i].price = 0;\r\n            }\r\n            return realStateMapWithoutPrice;\r\n        }\r\n    }\r\n\r\n    function getHistory() public view onlyAuthorized returns(Shared.RealState[] memory) {\r\n        require(history.length > 0, \"History is still empty\");\r\n        return history;\r\n    }\r\n}\r\n\r\n",
  "sourcePath": "C:\\Users\\Casa\\Desktop\\NuevosEstandares\\EstructuraDeDatos\\bnb1\\contracts\\RealStateContract.sol",
  "compiler": {
    "name": "solc",
    "version": "0.8.17+commit.8df45f5f.Emscripten.clang"
  },
  "schemaVersion": "3.4.16",
  "updatedAt": "2024-01-09T11:07:50.823Z",
  "networkType": "ethereum",
  "devdoc": {
    "kind": "dev",
    "methods": {},
    "version": 1
  },
  "userdoc": {
    "kind": "user",
    "methods": {},
    "version": 1
  }
}